:100000000C9472000C9493000C9493000C94930045
:100010000C9493000C9493000C9493000C94930014
:100020000C9493000C9493000C9493000C94930004
:100030000C9493000C9493000C9493000C949300F4
:100040000C9493000C9493000C9493000C949300E4
:100050000C94D8010C9493000C9493000C94B00170
:100060000C9493000C94B5000C9405010C9493002F
:100070000C9493000C9493000C9493000C949300B4
:100080000C9493000C9493000C9493000C94000235
:100090000C9493000C9493000C9493000C94930094
:1000A0000C9493000C9493000C9493000C94930084
:1000B0000C9493000C9428020C9493000C949300DD
:1000C0000C9493000C9493000C9450020C949300A5
:1000D0000C9493000C9493000C9493000C94930054
:1000E0000C94930011241FBECFEFD1E2DEBFCDBF31
:1000F00000E00CBF12E0A0E0B2E0E2E1F5E000E0D9
:100100000BBF02C007900D92A030B107D9F722E0D3
:10011000A0E0B2E001C01D92A430B207E1F70E9456
:1001200078020C9487020C940000E0910002F09198
:100130000102208131812E313105B1F04091C6009C
:1001400084819581DF01A80FB91F16964C932F5F0C
:100150003F4F3183208301968E31910519F09583AD
:10016000848308951582148208951F920F920FB60A
:100170000F9211240BB60F922F933F934F935F93DF
:100180006F937F938F939F93AF93BF93EF93FF935F
:100190000E949500FF91EF91BF91AF919F918F9138
:1001A0007F916F915F914F913F912F910F900BBE77
:1001B0000F900FBE0F901F901895E0910002F091E4
:1001C000010286A197A1DF01A80FB91F9A964C9151
:1001D000019697A386A324A135A12150310935A307
:1001E00024A34E9711F417A216A24093C600E091E3
:1001F0000002F091010284A195A1892B29F4E1EC80
:10020000F0E080818F7D808308951F920F920FB65A
:100210000F9211240BB60F922F933F934F935F933E
:100220006F937F938F939F93AF93BF93EF93FF93BE
:100230000E94DD00FF91EF91BF91AF919F918F914F
:100240007F916F915F914F913F912F910F900BBED6
:100250000F900FBE0F901F901895FC01818188238D
:10026000D1F084819581A681B7810196A11DB11D30
:1002700084839583A683B783408551856285738582
:1002800084179507A607B70731F481E080831482AD
:100290001582168217820895CF92DF92EF92FF9215
:1002A000E0910202F0910302DF01AA5BBF4F0D90C3
:1002B000BC91A02D8085918511969C938E93E091A1
:1002C0000202F091030220813181428153816481D5
:1002D000758186819781A1E00E947B022083318312
:1002E00042835383648375838683978320910202BC
:1002F00030910302F901EE5BFF4F80819181A28171
:10030000B381892B8A2B8B2B31F1C12CD12C760117
:10031000C601880F991F8C0D9D1D880F991F880F8E
:10032000991F4296820F931F0E942D018FEFC81ACA
:10033000D80AE80AF80A2091020230910302F90172
:10034000EE5BFF4F80819181A281B381C816D906EF
:10035000EA06FB06E8F2FF90EF90DF90CF90089559
:100360001F920F920FB60F9211240BB60F922F937C
:100370003F934F935F936F937F938F939F93AF932D
:10038000BF93EF93FF930E944C01FF91EF91BF91B8
:10039000AF919F918F917F916F915F914F913F911D
:1003A0002F910F900BBE0F900FBE0F901F901895BE
:1003B0001F920F920FB60F9211240BB60F922F932C
:1003C0003F934F935F936F937F938F939F93AF93DD
:1003D000BF93EF93FF930E944C01FF91EF91BF9168
:1003E000AF919F918F917F916F915F914F913F91CD
:1003F0002F910F900BBE0F900FBE0F901F9018956E
:100400001F920F920FB60F9211240BB60F922F93DB
:100410003F934F935F936F937F938F939F93AF938C
:10042000BF93EF93FF930E944C01FF91EF91BF9117
:10043000AF919F918F917F916F915F914F913F917C
:100440002F910F900BBE0F900FBE0F901F9018951D
:100450001F920F920FB60F9211240BB60F922F938B
:100460003F934F935F936F937F938F939F93AF933C
:10047000BF93EF93FF930E944C01FF91EF91BF91C7
:10048000AF919F918F917F916F915F914F913F912C
:100490002F910F900BBE0F900FBE0F901F901895CD
:1004A0001F920F920FB60F9211240BB60F922F933B
:1004B0003F934F935F936F937F938F939F93AF93EC
:1004C000BF93EF93FF930E944C01FF91EF91BF9177
:1004D000AF919F918F917F916F915F914F913F91DC
:1004E0002F910F900BBE0F900FBE0F901F9018957D
:1004F00080E090E008950024A7FD00942A0F301DAD
:10050000401D501D601D701D801D901D0895F894A4
:02051000FFCF1B
:00000001FF
