:100000000C9478000C9499000C9499000C9499002D
:100010000C9499000C9499000C9499000C949900FC
:100020000C9499000C9499000C9499000C949900EC
:100030000C9499000C9499000C9499000C949900DC
:100040000C9499000C9499000C9499000C949900CC
:100050000C9421020C9499000C9499000C94F901D1
:100060000C9499000C94FE000C944E010C94990091
:100070000C9499000C9499000C9499000C9499009C
:100080000C9499000C9499000C9499000C944902DA
:100090000C9499000C9499000C9499000C9499007C
:1000A0000C9499000C9499000C9499000C9499006C
:1000B0000C9499000C9471020C9499000C94990082
:1000C0000C9499000C9499000C9499020C9499004A
:1000D0000C9499000C9499000C9499000C9499003C
:1000E0000C9499000C949C000C94E3020C949B00DB
:1000F00011241FBECFEFD1E2DEBFCDBF00E00CBFA9
:1001000012E0A0E0B2E0E4EEF5E000E00BBF02C0D8
:1001100007900D92A23BB107D9F722E0A2EBB2E023
:1001200001C01D92A63BB207E1F70E94C8020C94E1
:10013000F0020C940000089508950F931F93CF933D
:10014000DF93EC01162F042F0E94C1028AE192E096
:1001500099838883812F90E0FC01E25EFD4F6081EE
:100160006C83FC01EC59FD4FE081F0E0EE0FFF1FC6
:10017000E050FE4F808191819B838A8341E0011191
:1001800001C040E00E94D100DF91CF911F910F91FB
:1001900008952AE132E0FC01318320830E94C702E6
:1001A0000895442329F0FC012181622B6183089585
:1001B0006095FC012181622361830895E091B20280
:1001C000F091B302208131812E313105B1F040919F
:1001D000C60084819581DF01A80FB91F16964C9344
:1001E0002F5F3F4F3183208301968E31910519F0A7
:1001F0009583848308951582148208951F920F9227
:100200000FB60F9211240BB60F922F933F934F937B
:100210005F936F937F938F939F93AF93BF93EF936E
:10022000FF930E94DE00FF91EF91BF91AF919F91EC
:100230008F917F916F915F914F913F912F910F908F
:100240000BBE0F900FBE0F901F901895E091B20259
:10025000F091B30286A197A1DF01A80FB91F9A966A
:100260004C91019697A386A324A135A12150310971
:1002700035A324A34E9711F417A216A24093C600EB
:10028000E091B202F091B30284A195A1892B29F4E7
:10029000E1ECF0E080818F7D808308951F920F92C2
:1002A0000FB60F9211240BB60F922F933F934F93DB
:1002B0005F936F937F938F939F93AF93BF93EF93CE
:1002C000FF930E942601FF91EF91BF91AF919F9103
:1002D0008F917F916F915F914F913F912F910F90EF
:1002E0000BBE0F900FBE0F901F901895FC018181DF
:1002F0008823D1F084819581A681B7810196A11DC3
:10030000B11D84839583A683B7834085518562851B
:10031000738584179507A607B70731F481E08083BA
:1003200014821582168217820895CF92DF92EF927F
:10033000FF92E091B402F091B502DF01AA5BBF4FDA
:100340000D90BC91A02D8085918511969C938E93E4
:10035000E091B402F091B502208131814281538154
:100360006481758186819781A1E00E94E4022083E7
:10037000318342835383648375838683978320917B
:10038000B4023091B502F901EE5BFF4F808191819B
:10039000A281B381892B8A2B8B2B31F1C12CD12CDB
:1003A0007601C601880F991F8C0D9D1D880F991F1E
:1003B000880F991F4296820F931F0E9476018FEF3C
:1003C000C81AD80AE80AF80A2091B4023091B50296
:1003D000F901EE5BFF4F80819181A281B381C81644
:1003E000D906EA06FB06E8F2FF90EF90DF90CF9087
:1003F00008951F920F920FB60F9211240BB60F9211
:100400002F933F934F935F936F937F938F939F931C
:10041000AF93BF93EF93FF930E949501FF91EF91EC
:10042000BF91AF919F918F917F916F915F914F910C
:100430003F912F910F900BBE0F900FBE0F901F900A
:1004400018951F920F920FB60F9211240BB60F92B0
:100450002F933F934F935F936F937F938F939F93CC
:10046000AF93BF93EF93FF930E949501FF91EF919C
:10047000BF91AF919F918F917F916F915F914F91BC
:100480003F912F910F900BBE0F900FBE0F901F90BA
:1004900018951F920F920FB60F9211240BB60F9260
:1004A0002F933F934F935F936F937F938F939F937C
:1004B000AF93BF93EF93FF930E949501FF91EF914C
:1004C000BF91AF919F918F917F916F915F914F916C
:1004D0003F912F910F900BBE0F900FBE0F901F906A
:1004E00018951F920F920FB60F9211240BB60F9210
:1004F0002F933F934F935F936F937F938F939F932C
:10050000AF93BF93EF93FF930E949501FF91EF91FB
:10051000BF91AF919F918F917F916F915F914F911B
:100520003F912F910F900BBE0F900FBE0F901F9019
:1005300018951F920F920FB60F9211240BB60F92BF
:100540002F933F934F935F936F937F938F939F93DB
:10055000AF93BF93EF93FF930E949501FF91EF91AB
:10056000BF91AF919F918F917F916F915F914F91CB
:100570003F912F910F900BBE0F900FBE0F901F90C9
:1005800018952EEA32E0FC01318320830895089506
:10059000CF93DF9300D000D0CDB7DEB741E066E364
:1005A000CE0101960E949D00CE0101960E94C900D5
:1005B00080E090E026960FB6F894DEBF0FBECDBF68
:1005C000DF91CF910895FFCF0024A7FD00942A0F5B
:1005D000301D401D501D601D701D801D901D089513
:0405E000F894FFCFBD
:1005E40020002300260029002C002F0032000001E7
:1005F400030106010901000000009B009C000102A8
:100604001020200808102040102040800201020120
:1006140008040201010204081020408080402010D8
:100624000804020180040201804020100804020131
:100634000804020101020408102040800102040899
:10064400102040800404040406040707070701017E
:10065400010108080707030303030000000000006A
:1006640000000202020202020202030606060A0A4D
:100674000A0A0A0A0A0A0101010105050505050518
:100684000505090909090909090900000000E3022F
:02069400E3027F
:00000001FF
