:100000000C94B9000C94EA000C94EA000C94EA00F9
:100010000C94EA000C94EA000C94EA000C94EA00B8
:100020000C94EA000C94EA000C94EA000C94EA00A8
:100030000C94EA000C94EA000C94EA000C94EA0098
:100040000C94EA000C94EA000C94EA000C94EA0088
:100050000C946B040C94EA000C94EA000C94430496
:100060000C94EA000C9448030C9498030C94EA0056
:100070000C94EA000C94EA000C94EA000C94EA0058
:100080000C94EA000C94EA000C94EA000C9493049B
:100090000C94EA000C94EA000C94EA000C94EA0038
:1000A0000C94EA000C94EA000C94EA000C94EA0028
:1000B0000C94EA000C94BB040C94EA000C94EA0043
:1000C0000C94EA000C94EA000C94E3040C94EA000B
:1000D0000C94EA000C94EA000C94EA000C94EA00F8
:1000E0000C94EA0007634236B79BD8A71A396856C2
:1000F00018AEBAAB558C1D3CB7CC5763BD6DEDFD4A
:10010000753EF6177231BF000000803F0800000006
:10011000BE922449123EABAAAA2ABECDCCCC4C3EFC
:1001200000000080BEABAAAAAA3E00000000BF00EB
:100130000000803F0000000000084178D3BB4387E7
:10014000D1133D190E3CC3BD4282AD2B3E68EC82FB
:1001500076BED98FE1A93E4C80EFFFBE01C4FF7F80
:100160003F00000000000C94E1050C94CC05CC0588
:10017000E10511241FBECFEFD1E2DEBFCDBF00E00D
:100180000CBF12E0A0E0B2E0E0E8F3E100E00BBF5A
:1001900002C007900D92A43CB107D9F723E0A4EC6C
:1001A000B2E001C01D92A431B207E1F710E0C8EB44
:1001B000D0E000E006C021970109802FFE010E94D7
:1001C000A609C73BD10780E00807A9F70E940B05E5
:1001D0000C94AE090C9400008F929F92AF92BF9244
:1001E000CF92DF92EF92FF924A015B016091B900DA
:1001F000637070E080E090E00E94FA069B01AC0121
:1002000060E070E080E890E40E9486076B017C016A
:1002100060E074E284EF90E0A50194010E94780907
:10022000CA01B90160517109810991090E94F8065A
:100230004B015C01A7019601C701B6010E94EB05C5
:100240009B01AC01C501B4010E9457060E94C9067A
:100250006093B800FF90EF90DF90CF90BF90AF9089
:100260009F908F90089584EA8093BC00ECEBF0E0BF
:1002700080818823ECF78091B900887F803199F4E0
:100280006093BB0084E88093BC00ECEBF0E08081DD
:100290008823ECF78091B900887F803431F0803278
:1002A00031F083E0089580E0089581E0089582E0D0
:1002B000089584E98093BC00ECEBF0E0808184FD3C
:1002C000FDCF08959F92AF92BF92CF92DF92EF92AF
:1002D000FF920F931F93CF93DF937C01962ECCEB6D
:1002E000D0E00F2EF9EBCF2ED12CF02D0F2EF4EA0B
:1002F000BF2EF02D0BEB10E00F2EF4E8AF2EF02DFB
:10030000B88288818823ECF7F6018081887F883065
:10031000B9F7F8019082A88288818823ECF7F6016A
:100320008081887F883121F0C7010E945901E8CF80
:10033000DF91CF911F910F91FF90EF90DF90CF90C1
:10034000BF90AF909F9008956093BB0084E8809326
:10035000BC00ECEBF0E080818823ECF78091B900E1
:10036000887F883221F0803321F082E0089580E098
:10037000089581E0089584EC8093BC00ECEBF0E0FC
:1003800080818823ECF78091BB00089584E88093F6
:10039000BC00ECEBF0E080818823ECF78091BB009F
:1003A0000895CF92DF92EF92FF920F931F93CF9316
:1003B000DF937C016B01142F622F6E7F0E9462011C
:1003C000602FC7010E94A401112361F0E601C6015C
:1003D000810F911D8C016991C7010E94A401C01772
:1003E000D107C9F7C7010E945901DF91CF911F9131
:1003F0000F91FF90EF90DF90CF900895AF92BF9252
:10040000CF92DF92EF92FF920F931F93CF93DF93E0
:100410007C01B62ED72FC42EC22F622F6E7F0E9472
:100420006201602FC7010E94A4016C2F6160C701A7
:100430000E943301D12C1C141D04E4F40B2D1D2F3C
:10044000C0E0D0E0560181E0A81AB108AC16BD06A4
:1004500031F4C7010E94C601F801808305C0C701BD
:100460000E94BB01F801808321960F5F1F4FCC15BE
:10047000DD0561F7C7010E945901DF91CF911F91FE
:100480000F91FF90EF90DF90CF90BF90AF900895C5
:10049000DC01262F30E0F901EA5EFD4F6081129603
:1004A0006C931297F901E45AFD4FE081F0E0EE0FF2
:1004B000FF1FE050FE4F808191818D939C9321E03E
:1004C000411101C020E0422F0E947002089508955A
:1004D000462FFC016281808191810E947D020895F6
:1004E000442329F0FC012181622B618308956095EA
:1004F000FC012181622361830895442329F0FC01DA
:100500002281622B628308956095FC01228162231F
:1005100062830895EF92FF920F931F93CF93DF931F
:10052000EC01F42E122F9093C5028093C4029B011C
:1005300040E050E060E472E48FE090E00E947809CF
:100540003093C5002093C40088E98093C100F02A4D
:100550001F291093C200EE0CE092C0001FA21EA241
:1005600019A618A61DA21CA2FE01BA968EE1DF01F3
:10057000982F1D929A95E9F71B821A821D821C8280
:10058000198218822696DE011D928A95E9F7DF917D
:10059000CF911F910F91FF90EF9008951092C50297
:1005A0001092C4020895FC0124A135A12E31310519
:1005B000E9F380A591A5DF01A80FB91F9A966C9366
:1005C0002F5F3F4F35A324A301968E31910519F07B
:1005D00091A780A702C011A610A6E1ECF0E08081EF
:1005E0008062808308950F931F93CF93DF93EB0175
:1005F0006881662341F08C012196C8010E94D302D4
:1006000069916111FACFDF91CF911F910F910895F8
:10061000FC0122813381DC01A20FB31F16968C915D
:100620002F5F3F4F338322834081518141505109D5
:10063000518340832E31310511F4138212820895C3
:10064000FC0181E020813181232B09F480E00895B1
:10065000E091C402F091C502208131812E31310533
:10066000B1F04091C60084819581DF01A80FB91FC8
:1006700016964C932F5F3F4F3183208301968E3126
:10068000910519F095838483089515821482089545
:100690001F920F920FB60F9211240BB60F922F9349
:1006A0003F934F935F936F937F938F939F93AF93FA
:1006B000BF93EF93FF930E942803FF91EF91BF91A7
:1006C000AF919F918F917F916F915F914F913F91EA
:1006D0002F910F900BBE0F900FBE0F901F9018958B
:1006E000E091C402F091C50286A197A1DF01A80F95
:1006F000B91F9A964C91019697A386A324A135A180
:100700002150310935A324A34E9711F417A216A244
:100710004093C600E091C402F091C50284A195A166
:10072000892B29F4E1ECF0E080818F7D80830895AE
:100730001F920F920FB60F9211240BB60F922F93A8
:100740003F934F935F936F937F938F939F93AF9359
:10075000BF93EF93FF930E947003FF91EF91BF91BE
:10076000AF919F918F917F916F915F914F913F9149
:100770002F910F900BBE0F900FBE0F901F901895EA
:10078000FC0181818823D1F084819581A681B78184
:100790000196A11DB11D84839583A683B7834085EF
:1007A00051856285738584179507A607B70731F4CD
:1007B00081E0808314821582168217820895CF9279
:1007C000DF92EF92FF92E091C602F091C702DF0143
:1007D000AA5BBF4F0D90BC91A02D8085918511968D
:1007E0009C938E93E091C602F091C70220813181E3
:1007F000428153816481758186819781A1E00E9445
:100800009A0920833183428353836483758386836B
:1008100097832091C6023091C702F901EE5BFF4F2A
:1008200080819181A281B381892B8A2B8B2B31F11D
:10083000C12CD12C7601C601880F991F8C0D9D1DEE
:10084000880F991F880F991F4296820F931F0E944D
:10085000C0038FEFC81AD80AE80AF80A2091C60226
:100860003091C702F901EE5BFF4F80819181A28137
:10087000B381C816D906EA06FB06E8F2FF90EF90AE
:10088000DF90CF9008951F920F920FB60F92112410
:100890000BB60F922F933F934F935F936F937F937A
:1008A0008F939F93AF93BF93EF93FF930E94DF03C8
:1008B000FF91EF91BF91AF919F918F917F916F9138
:1008C0005F914F913F912F910F900BBE0F900FBEF4
:1008D0000F901F9018951F920F920FB60F92112430
:1008E0000BB60F922F933F934F935F936F937F932A
:1008F0008F939F93AF93BF93EF93FF930E94DF0378
:10090000FF91EF91BF91AF919F918F917F916F91E7
:100910005F914F913F912F910F900BBE0F900FBEA3
:100920000F901F9018951F920F920FB60F921124DF
:100930000BB60F922F933F934F935F936F937F93D9
:100940008F939F93AF93BF93EF93FF930E94DF0327
:10095000FF91EF91BF91AF919F918F917F916F9197
:100960005F914F913F912F910F900BBE0F900FBE53
:100970000F901F9018951F920F920FB60F9211248F
:100980000BB60F922F933F934F935F936F937F9389
:100990008F939F93AF93BF93EF93FF930E94DF03D7
:1009A000FF91EF91BF91AF919F918F917F916F9147
:1009B0005F914F913F912F910F900BBE0F900FBE03
:1009C0000F901F9018951F920F920FB60F9211243F
:1009D0000BB60F922F933F934F935F936F937F9339
:1009E0008F939F93AF93BF93EF93FF930E94DF0387
:1009F000FF91EF91BF91AF919F918F917F916F91F7
:100A00005F914F913F912F910F900BBE0F900FBEB2
:100A10000F901F901895CF93DF93CDB7DEB76A97ED
:100A20000FB6F894DEBF0FBECDBF60E088EC92E059
:100A30000E94680240EA56E861E070E0CE0101964B
:100A40000E94EC0088E0E5EBF2E0DE0112960190F6
:100A50000D928A95E1F787E0EDEBF2E0DE011A9660
:100A600001900D928A95E1F778948CEC92E00E94C7
:100A700020038823D1F38CEC92E00E94080362EA01
:100A800072E08CEC92E00E94F302BE016E5F7F4F39
:100A90008CEC92E00E94F3022FEF81EE94E0215063
:100AA00080409040E1F700C0000000E020EB47E00C
:100AB000BE016E5F7F4FCE0101960E94D10120EBF7
:100AC00047E0BE016F5E7F4FCE0101960E94FE019E
:100AD0002FEF81EE94E0215080409040E1F700C07C
:100AE00000006AE08CEC92E00E94D3026FEA72E0B0
:100AF0008CEC92E00E94F302BE016F5E7F4F8CECA3
:100B000092E00E94F3026AE08CEC92E00E94D30231
:100B100062EA72E08CEC92E00E94F302BE01665F32
:100B20007F4F8CEC92E00E94F3022FEF81EE94E075
:100B3000215080409040E1F700C0000020EA47E0EB
:100B4000BE01665F7F4FCE0101960E94D10120EA6F
:100B500047E0BE016F5E7F4FCE0101960E94FE010D
:100B60006AE08CEC92E00E94D3026FEA72E08CECB7
:100B700092E00E94F302BE016F5E7F4F8CEC92E028
:100B80000E94F3022FEF81EE94E0215080409040CC
:100B9000E1F700C0000069CFEF920F93E12C00E075
:100BA00020E046E060E875E28CEC92E00E948A0268
:100BB00041E066E388EC92E00E9448020F91EF90DA
:100BC000089588EC92E00E9467028CEC92E00E940B
:100BD000CE0208955058BB27AA270E9402060C9403
:100BE0004C070E943E0738F00E94450720F039F478
:100BF0009F3F19F426F40C943B070EF4E095E7FBB5
:100C00000C943507E92F0E945D0758F3BA17620765
:100C100073078407950720F079F4A6F50C947F07F5
:100C20000EF4E0950B2EBA2FA02D0B01B901900107
:100C30000C01CA01A0011124FF27591B99F0593F4B
:100C400050F4503E68F11A16F040A22F232F342F93
:100C50004427585FF3CF469537952795A795F040E1
:100C60005395C9F77EF41F16BA0B620B730B840BF6
:100C7000BAF09150A1F0FF0FBB1F661F771F881FAE
:100C8000C2F70EC0BA0F621F731F841F48F4879506
:100C900077956795B795F7959E3F08F0B0CF9395F8
:100CA000880F08F09927EE0F9795879508950E9471
:100CB0006B060C944C070E94450758F00E943E07B3
:100CC00040F029F45F3F29F00C94350751110C9442
:100CD00080070C943B070E945D0768F39923B1F3EA
:100CE000552391F3951B550BBB27AA276217730752
:100CF000840738F09F5F5F4F220F331F441FAA1FE6
:100D0000A9F335D00E2E3AF0E0E832D091505040A1
:100D1000E695001CCAF72BD0FE2F29D0660F771F4F
:100D2000881FBB1F261737074807AB07B0E809F035
:100D3000BB0B802DBF01FF2793585F4F3AF09E3FBA
:100D4000510578F00C9435070C9480075F3FE4F36D
:100D5000983ED4F3869577956795B795F7959F5FFD
:100D6000C9F7880F911D9695879597F90895E1E049
:100D7000660F771F881FBB1F621773078407BA07A8
:100D800020F0621B730B840BBA0BEE1F88F7E09503
:100D900008950E94650788F09F5798F0B92F99270A
:100DA000B751B0F0E1F0660F771F881F991F1AF056
:100DB000BA95C9F714C0B13091F00E947F07B1E035
:100DC00008950C947F07672F782F8827B85F39F034
:100DD000B93FCCF3869577956795B395D9F73EF4EF
:100DE00090958095709561957F4F8F4F9F4F089597
:100DF000E89409C097FB3EF49095809570956195B5
:100E00007F4F8F4F9F4F9923A9F0F92F96E9BB276A
:100E10009395F695879577956795B795F111F8CFE6
:100E2000FAF4BB0F11F460FF1BC06F5F7F4F8F4F51
:100E30009F4F16C0882311F096E911C0772321F047
:100E40009EE8872F762F05C0662371F096E8862FDF
:100E500070E060E02AF09A95660F771F881FDAF736
:100E6000880F9695879597F9089597F99F6780E879
:100E700070E060E008959FEF80EC089500240A94EC
:100E80001616170618060906089500240A94121665
:100E90001306140605060895092E0394000C11F498
:100EA000882352F0BB0F40F4BF2B11F460FF04C045
:100EB0006F5F7F4F8F4F9F4F089557FD9058440F9E
:100EC000551F59F05F3F71F04795880F97FB991FA9
:100ED00061F09F3F79F08795089512161306140666
:100EE000551FF2CF4695F1DF08C0161617061806F3
:100EF000991FF1CF86957105610508940895E894CE
:100F0000BB2766277727CB0197F90895FA01EE0FE3
:100F1000FF1F309621053105A1F16115710561F4BE
:100F20008038BFE39B0749F168949038810561F0F0
:100F30008038BFEF9B0741F099234AF5FF3FE10559
:100F40003105210519F1E8940894E795D901AA2300
:100F500029F4AB2FBE2FF85FD0F310C0FF5F70F401
:100F6000A695E0F7F73950F019F0FF3A38F49F777B
:100F70009F930DD00F9007FC9058089546F00C9465
:100F80003B0760E070E080E89FE308954FE79F77BC
:100F90005F934F933F932F930E9481082F913F912E
:100FA0004F915F910E94FD080C94DE0729F416F022
:100FB0000C9435070C947F070C943B070E9465073F
:100FC000A8F39638A0F707F80F92E8942BE33AEAD3
:100FD00048EB5FE70E9413090F920F920F924DB7F3
:100FE0005EB70F920E94C908E4EEF0E00E9410087C
:100FF0004F915F91EF91FF91E595EE1FFF1F49F033
:10100000FE57E0684427EE0F441FFA95E1F741953B
:10101000550B0E9443080F9007FE0C943708089563
:10102000DF93CF931F930F93FF92EF92DF927B0199
:101030008C01689406C0DA2EEF010E941009FE01AF
:10104000E894A5912591359145915591A6F3EF012D
:101050000E940206FE019701A801DA9469F7DF9069
:10106000EF90FF900F911F91CF91DF9108959B0119
:10107000AC0160E070E080E89FE30C9457060C94AC
:1010800035070C946A090E946507D8F39923C9F3C0
:10109000940F511DA3F39150504094F059F08823C0
:1010A00032F0660F771F881F91505040C1F79E3F66
:1010B00051052CF7880F911D9695879597F90895FE
:1010C0005F3FACF0983E9CF0BB278695779567957F
:1010D000B79508F4B1609395C1F7BB0F58F711F4B9
:1010E00060FFE8CF6F5F7F4F8F4F9F4FE3CF0C9430
:1010F000800716F00C946A090C943B0768940C94D2
:1011000035070E946507A8F39923C1F3AEF3DF9377
:10111000CF931F930F93FF92C92FDD2788232AF0C7
:101120002197660F771F881FDAF720E030E040E84C
:101130005FEB9FE3883920F0803E38F021968F776F
:101140000E94EB05ECE0F1E004C00E94EB05E9E34E
:10115000F1E00E9410088B01BE01EC01FB2E6F57DD
:1011600071097595771F880B990B0E94FA0628E183
:1011700032E741E35FE30E941009AF2D9801AE0111
:10118000FF900F911F91CF91DF910E9402060C9466
:101190004C07FA01DC01AA0FBB1F9B01AC01BF5732
:1011A00028F4222733274427507820C0B75190F4E1
:1011B000AB2F0024469537952795011CA395D2F3B4
:1011C000002071F0220F331F441FB395DAF30ED0C5
:1011D0000C94EA0561307105A0E88A07B94630F43D
:1011E0009B01AC016627772788279078309621F0FD
:1011F000208331834283538308950E9410090C9405
:101200004C070E943E0738F00E94450720F09523C6
:1012100011F00C9435070C943B0711240C948007B3
:101220000E945D0770F3959FC1F3950F50E0551F25
:10123000629FF001729FBB27F00DB11D639FAA272B
:10124000F00DB11DAA1F649F6627B00DA11D661F7A
:10125000829F2227B00DA11D621F739FB00DA11D9B
:10126000621F839FA00D611D221F749F3327A00D55
:10127000611D231F849F600D211D822F762F6A2FF1
:1012800011249F5750409AF0F1F088234AF0EE0F56
:10129000FF1FBB1F661F771F881F91505040A9F783
:1012A0009E3F510580F00C9435070C9480075F3FFA
:1012B000E4F3983ED4F3869577956795B795F795BF
:1012C000E7959F5FC1F7FE2B880F911D9695879537
:1012D00097F908959F3F31F0915020F487957795C5
:1012E0006795B795880F911D9695879597F90895FD
:1012F000A1E21A2EAA1BBB1BFD010DC0AA1FBB1F1A
:10130000EE1FFF1FA217B307E407F50720F0A21B8B
:10131000B30BE40BF50B661F771F881F991F1A94F8
:1013200069F760957095809590959B01AC01BD0122
:10133000CF0108950024A7FD00942A0F301D401D01
:10134000501D601D701D801D901D0895EE0FFF1F24
:10135000881F8BBF0790F691E02D199410E0C8EB21
:10136000D0E000E006C0802FFE010E94A609219671
:10137000011DC93BD10780E00807A9F7F894FFCF0A
:1013800020002300260029002C002F00320000013D
:101390000301060109010102102020080810204065
:1013A0001020408002010201080402010102040829
:1013B00010204080804020100804020180040201B7
:1013C0008040201008040201080402010102040800
:1013D000102040800102040810204080040404040E
:1013E00006040707070701010101080807070303AF
:1013F00003030000000000000000020202020202DB
:101400000202030606060A0A0A0A0A0A0A0A010171
:10141000010105050505050505050909090909096C
:101420000909457363726576656E646F3A20004CF6
:1014300065753A200041524455494E4F004545508C
:04144000524F4D00BA
:00000001FF
